{"abi":[{"type":"constructor","inputs":[{"name":"addr","type":"address","internalType":"contract Storage"}],"stateMutability":"nonpayable"},{"type":"function","name":"addValuesWithCall","inputs":[{"name":"calculator","type":"address","internalType":"address"},{"name":"a","type":"uint256","internalType":"uint256"},{"name":"b","type":"uint256","internalType":"uint256"}],"outputs":[{"name":"","type":"uint256","internalType":"uint256"}],"stateMutability":"nonpayable"},{"type":"function","name":"addValuesWithDelegateCall","inputs":[{"name":"calculator","type":"address","internalType":"address"},{"name":"a","type":"uint256","internalType":"uint256"},{"name":"b","type":"uint256","internalType":"uint256"}],"outputs":[{"name":"","type":"uint256","internalType":"uint256"}],"stateMutability":"nonpayable"},{"type":"function","name":"calculateResult","inputs":[],"outputs":[{"name":"","type":"uint256","internalType":"uint256"}],"stateMutability":"view"},{"type":"function","name":"getValue","inputs":[],"outputs":[{"name":"","type":"uint256","internalType":"uint256"}],"stateMutability":"view"},{"type":"function","name":"s","inputs":[],"outputs":[{"name":"","type":"address","internalType":"contract Storage"}],"stateMutability":"view"},{"type":"function","name":"saveValue","inputs":[{"name":"x","type":"uint256","internalType":"uint256"}],"outputs":[{"name":"","type":"bool","internalType":"bool"}],"stateMutability":"nonpayable"},{"type":"function","name":"user","inputs":[],"outputs":[{"name":"","type":"address","internalType":"address"}],"stateMutability":"view"},{"type":"event","name":"AddedValuesByCall","inputs":[{"name":"a","type":"uint256","indexed":false,"internalType":"uint256"},{"name":"b","type":"uint256","indexed":false,"internalType":"uint256"},{"name":"success","type":"bool","indexed":false,"internalType":"bool"}],"anonymous":false},{"type":"event","name":"AddedValuesByDelegateCall","inputs":[{"name":"a","type":"uint256","indexed":false,"internalType":"uint256"},{"name":"b","type":"uint256","indexed":false,"internalType":"uint256"},{"name":"success","type":"bool","indexed":false,"internalType":"bool"}],"anonymous":false}],"bytecode":{"object":"0x6080604052348015600f57600080fd5b50604051610564380380610564833981016040819052602c916054565b600280546001600160a01b0319166001600160a01b0392909216919091179055600080556082565b600060208284031215606557600080fd5b81516001600160a01b0381168114607b57600080fd5b9392505050565b6104d3806100916000396000f3fe608060405234801561001057600080fd5b506004361061007d5760003560e01c806386b714e21161005b57806386b714e2146100d15780639b7e450c146100e4578063c14731ca146100f7578063f98f34d81461011a57600080fd5b806320965255146100825780634f8632ba1461009d5780636e008b35146100c8575b600080fd5b61008a61012d565b6040519081526020015b60405180910390f35b6001546100b0906001600160a01b031681565b6040516001600160a01b039091168152602001610094565b61008a60005481565b6002546100b0906001600160a01b031681565b61008a6100f23660046103fb565b6101a0565b61010a61010536600461043c565b6102aa565b6040519015158152602001610094565b61008a6101283660046103fb565b610311565b60025460408051631e35da1b60e11b815290516000926001600160a01b031691633c6bb4369160048083019260209291908290030181865afa158015610177573d6000803e3d6000fd5b505050506040513d601f19601f8201168201806040525081019061019b9190610455565b905090565b6000806000856001600160a01b031685856040516024016101cb929190918252602082015260400190565b60408051601f198184030181529181526020820180516001600160e01b031663771602f760e01b17905251610200919061046e565b600060405180830381855af49150503d806000811461023b576040519150601f19603f3d011682016040523d82523d6000602084013e610240565b606091505b5060408051888152602081018890528315159181019190915291935091507fb3cc7c40ae5fe031ec021a55a5c5cbddcb0837657bfaa8e8249801f67f729645906060015b60405180910390a1808060200190518101906102a09190610455565b9695505050505050565b600254604051635524107760e01b8152600481018390526000916001600160a01b031690635524107790602401600060405180830381600087803b1580156102f157600080fd5b505af1158015610305573d6000803e3d6000fd5b50600195945050505050565b6000806000856001600160a01b0316858560405160240161033c929190918252602082015260400190565b60408051601f198184030181529181526020820180516001600160e01b031663771602f760e01b17905251610371919061046e565b6000604051808303816000865af19150503d80600081146103ae576040519150601f19603f3d011682016040523d82523d6000602084013e6103b3565b606091505b5060408051888152602081018890528315159181019190915291935091507f81f50033f40bab548b88ccfd816202734d9325c0718e0395b473afe5454d599e90606001610284565b60008060006060848603121561041057600080fd5b83356001600160a01b038116811461042757600080fd5b95602085013595506040909401359392505050565b60006020828403121561044e57600080fd5b5035919050565b60006020828403121561046757600080fd5b5051919050565b6000825160005b8181101561048f5760208186018101518583015201610475565b50600092019182525091905056fea2646970667358221220d1cea7d442321a4544fb2924aabcc1308329ae15e4241d6c3274b7b75d4e813e64736f6c634300081a0033","linkReferences":{}},"methodIdentifiers":{"addValuesWithCall(address,uint256,uint256)":"f98f34d8","addValuesWithDelegateCall(address,uint256,uint256)":"9b7e450c","calculateResult()":"6e008b35","getValue()":"20965255","s()":"86b714e2","saveValue(uint256)":"c14731ca","user()":"4f8632ba"},"id":1}