{"abi":[{"type":"function","name":"add","inputs":[{"name":"a","type":"uint256","internalType":"uint256"},{"name":"b","type":"uint256","internalType":"uint256"}],"outputs":[{"name":"","type":"uint256","internalType":"uint256"}],"stateMutability":"nonpayable"},{"type":"function","name":"calculateResult","inputs":[],"outputs":[{"name":"","type":"uint256","internalType":"uint256"}],"stateMutability":"view"},{"type":"function","name":"user","inputs":[],"outputs":[{"name":"","type":"address","internalType":"address"}],"stateMutability":"view"},{"type":"event","name":"Add","inputs":[{"name":"a","type":"uint256","indexed":false,"internalType":"uint256"},{"name":"b","type":"uint256","indexed":false,"internalType":"uint256"}],"anonymous":false}],"bytecode":{"object":"0x6080604052348015600f57600080fd5b506101a08061001f6000396000f3fe608060405234801561001057600080fd5b50600436106100415760003560e01c80634f8632ba146100465780636e008b3514610076578063771602f71461008d575b600080fd5b600154610059906001600160a01b031681565b6040516001600160a01b0390911681526020015b60405180910390f35b61007f60005481565b60405190815260200161006d565b61007f61009b366004610111565b60006100a78284610133565b60008190558311156100bb576100bb610154565b60408051848152602081018490527f7afbe4f1c55b5f72ea356f5b4d5615831867af31454a5ca5557f315e6d11a369910160405180910390a150600180546001600160a01b031916331790556000545b92915050565b6000806040838503121561012457600080fd5b50508035926020909101359150565b8082018082111561010b57634e487b7160e01b600052601160045260246000fd5b634e487b7160e01b600052600160045260246000fdfea2646970667358221220799fa8d38f0611738091c53de167b6b0c3df797874d053af055a4f7a214bdd1e64736f6c634300081a0033","linkReferences":{}},"methodIdentifiers":{"add(uint256,uint256)":"771602f7","calculateResult()":"6e008b35","user()":"4f8632ba"},"id":0}