{"abi":[{"type":"constructor","inputs":[{"name":"v","type":"uint256","internalType":"uint256"}],"stateMutability":"nonpayable"},{"type":"function","name":"setValue","inputs":[{"name":"v","type":"uint256","internalType":"uint256"}],"outputs":[],"stateMutability":"nonpayable"},{"type":"function","name":"val","inputs":[],"outputs":[{"name":"","type":"uint256","internalType":"uint256"}],"stateMutability":"view"}],"bytecode":{"object":"0x6080604052348015600f57600080fd5b5060405161010a38038061010a833981016040819052602c916033565b600055604b565b600060208284031215604457600080fd5b5051919050565b60b1806100596000396000f3fe6080604052348015600f57600080fd5b506004361060325760003560e01c80633c6bb43614603757806355241077146051575b600080fd5b603f60005481565b60405190815260200160405180910390f35b6061605c3660046063565b600055565b005b600060208284031215607457600080fd5b503591905056fea26469706673582212206d9a30973d34c2d8fbd15d850e25e47877866398d7851de39dadadd932d2c7c164736f6c634300081a0033","linkReferences":{}},"methodIdentifiers":{"setValue(uint256)":"55241077","val()":"3c6bb436"},"id":2}